:020000040800F2
:10000000787501204D190508811705088317050823
:1000100085170508871705088917050800000000DF
:100020000000000000000000000000008B17050821
:100030008D170508000000008F17050891170508A7
:10004000591B05085D1B0508611B0508651B050894
:10005000691B05086D1B0508711B0508751B050844
:10006000791B05087D1B0508811B0508851B0508F4
:10007000891B05088D1B0508911B0508951B0508A4
:10008000991B05089D1B0508A11B0508A51B050854
:10009000A91B0508AD1B0508B11B0508B51B050804
:1000A000B91B0508BD1B0508C11B0508C51B0508B4
:1000B000C91B0508CD1B0508D11B0508D51B050864
:1000C000D91B0508DD1B0508E11B0508E51B050814
:1000D000E91B0508ED1B0508F11B0508F51B0508C4
:1000E000F91B0508FD1B0508011C0508051C050872
:1000F000091C05080D1C0508111C0508151C050820
:10010000191C05081D1C0508211C0508251C0508CF
:10011000291C05082D1C050895170508311C050824
:10012000351C0508391C05083D1C0508411C05083F
:10013000451C0508491C05084D1C0508511C0508EF
:10014000551C0508591C05085D1C0508611C05089F
:10015000651C0508691C05086D1C0508711C05084F
:10016000751C0508791C05087D1C0508811C0508FF
:10017000851C0508891C05088D1C05080000000069
:10018000911C0508951C0508991C05089D1C05086F
:10019000A11C0508A51C0508A91C0508AD1C05081F
:1001A000B11C0508B51C0508B91C05087FFF17FF21
:1001B000F06FFF05FFF05FFE04FFE04FFD03FFC09F
:1001C0002FFC02FFB01FFB01FFA00FF900FF900FF3
:1001D000F800331000000000002DFA0BFFF4AFFF11
:1001E00042CF90FFB002FF7FFA002FF7EFA002FF8F
:1001F0006EF9001FF6EF9001FF6DF8001FF5DF802C
:1002000000FF5DF8000FF479400099200000000B1A
:10021000F8000006FD00000000000DF6000009FBDC
:1002200000000000000FF400000BF90000000000C7
:100230002FF200000DF600000000004FF000000F4C
:10024000F4000001FFFFFFFFFFFFFFFFFFFA01FFC8
:10025000FFFFFFFFFFFFFFFFFA005555CFB55555D4
:100260009FE55553000000CF7000007FC0000000E4
:100270000000EF6000009FA00000000000FF4000B1
:1002800000BF800000000002FF200000DF700000BF
:10029000000004FF000000FF500000000006FE0008
:1002A0000000FF3000002FFFFFFFFFFFFFFFFFFFF9
:1002B000902FFFFFFFFFFFFFFFFFFF9005555DFA47
:1002C000555559FE55553000000DF6000008FB004D
:1002D000000000000FF400000AF900000000001FF9
:1002E000F200000CF700000000003FF000000EF5E7
:1002F00000000000005FE000000FF30000000000BD
:100300000000EF2000000000000000EF20000000CF
:1003100000000000EF2000000000000000EF2000BF
:100320000000000028CEFFFEB820000009FFFFFFFC
:10033000FFFFFB2000BFFFFCFFDEFFFF5007FFF8C1
:1003400010EF2016CE000EFF7000EF200002001FFD
:10035000FF0000EF200000001FFF0000EF20000062
:10036000000FFF7000EF2000000008FFFA30EF20C0
:1003700000000001DFFFFDFF30000000001AFFFF5A
:10038000FFFD820000000028DFFFFFFFB200000039
:100390000001EFEFFFFF4000000000EF229FFFE0B1
:1003A00000000000EF2003FFF500000000EF200038
:1003B000AFF800000000EF2000AFF80B500000EF96
:1003C0002001EFF44FFC5100EF203DFFD05FFFFF15
:1003D000DCFFCEFFFF3003BFFFFFFFFFFFD30000B6
:1003E000027BDFFFFEA5000000000000EF20000000
:1003F0000000000000EF2000000000000000EF20DF
:10040000000000000000007810000000002AEFD873
:1004100010000000007FE100003FFFDFFD10000042
:10042000002FF500000EF8000AFB0000000CFA0097
:100430000006FD00001FF3000008FE000000AF7082
:100440000000AF700003FF4000000CF5000008F84A
:100450000000DF80000000CF5000008F80009FD0A0
:100460000000000AF700000BF6004FF20000000049
:100470005FE00001FF201EF70000000000DFB20374
:10048000CFA00BFC000000000002EFFFFFC006FF42
:100490002019DFE92000007BCB6002FF601EFFDF38
:1004A000FE300000000000CFA00CFB1009FD000092
:1004B0000000007FE103FF10000EF6000000003F87
:1004C000F4007FA000007FA00000000DF90009F8F3
:1004D000000005FC00000009FD00009F7000005FA7
:1004E000C0000004FF300007F9000007FA00000117
:1004F000EF8000003FE00000CF600000AFC00000D0
:1005000000CF80006FE000005FF200000002EFDA31
:10051000CFF300001EF600000000019EFEA20000C6
:1005200000028DFFEA40000000000005FFFFFFFF12
:10053000900000000002FFF9546EFF500000000020
:100540009FF700002FFA000000000CFF100000DFF2
:10055000C000000000BFF200001FFA00000000070A
:10056000FF90000BFF40000000001EFF603DFF9069
:1005700000000000004FFFBFFF80000000000000EF
:100580007FFFFD400000000000006EFFFF700000D4
:1005900000000001BFFE9FFF700000500001DFFA65
:1005A000104FFF80005FF400BFF800004FFF90097C
:1005B000FF103FFD0000003FFF91FFC007FF8000DC
:1005C00000003EFFEFF5008FF8000000002EFFFC5A
:1005D0000006FFD0000000005FFFC0001EFFB20059
:1005E00000018FFFFFC1005FFFFCA89CFFFF6CFFB5
:1005F000C1004EFFFFFFFFFB201CFE200005ADFFEA
:10060000EC8300001C40000000000000000000001F
:1006100000FFBFFAEFAEF9EF9DF8DF8DF8794000EB
:1006200006FF8000EFE0007FF8000EFF1003FFB030
:10063000008FF6000EFF1001FFD0004FFA0007FFF9
:100640008000AFF5000CFF3000CFF2000DFF20005E
:10065000EFF1000EFF1000DFF2000CFF2000CFF3DF
:10066000000AFF50007FF80004FFA0001FFD0000FB
:10067000DFF10008FF60003FFB0000DFF10006FF34
:1006800080000EFE00006FF8BFF30004FFB0000C06
:10069000FF30005FFB0000FFF0000AFF50005FFB2F
:1006A0000001FFE0000EFF1000BFF40008FF700023
:1006B0006FF90006FFA0005FFB0004FFB0004FFCD5
:1006C0000005FFB0006FFA0006FF90008FF7000BE7
:1006D000FF4000EFF1001FFE0005FFB000AFF50086
:1006E0000FFF0004FFB000CFF3003FFB000BFF3013
:1006F00000000008F500000000008F5000000970A5
:1007000008F5008702FFD48F56EFE004DFFEFEFFFE
:10071000B300006EFFFD40000019FFFFE700007E00
:10072000FFDFDFFD502FFA28F53CFE0074008F50EC
:100730000650000008F500000000007D40000000A9
:100740000000EE9000000000000FFA000000000022
:1007500000FFA000000000000FFA000000000000F1
:10076000FFA000000000000FFA000000DFFFFFFF05
:10077000FFFFFF7DFFFFFFFFFFFFF7788888FFD8AF
:1007800088883000000FFA000000000000FFA00081
:10079000000000000FFA000000000000FFA00000B1
:1007A0000000000FFA00000007CA14FFF96FFFB243
:1007B000EFF804FF306FE00AF900EF302FE0001A85
:1007C000AAAAAAA42FFFFFFFF72FFFFFFFF70142FE
:1007D00001EFF47FFFB6FFF90AFC100000000000F3
:1007E0008FF40000000000DFE00000000003FF9035
:1007F0000000000009FF30000000000EFD000000B6
:1008000000004FF80000000000AFF2000000000000
:10081000FFC00000000005FF70000000000AFF108C
:10082000000000001FFC00000000006FF600000048
:100830000000BFF10000000001FFB0000000000751
:10084000FF50000000000CFF00000000002FFA0025
:10085000000000007FF40000000000DFE000000066
:100860000003FF900000000008FF30000000000EB1
:10087000FE00000000004FF800000000009FF200A2
:1008800000000000EFD00000000004FF7000000036
:10089000000AFF20000000000FFC00000000005FC5
:1008A000F60000000000BFF10000000000000000A2
:1008B0006BEFFC820000000005EFFFFFFFF9000076
:1008C0000007FFFFFDEFFFFC000005FFFC400029D3
:1008D000FFFA0000EFFB00000006FFF4007FFE10AF
:1008E0000000000AFFC00DFF70000000002FFF2174
:1008F000FFF20000000000DFF64FFF0000000000E4
:1009000009FF96FFD000000000007FFB7FFC000085
:1009100000000006FFC7FFC000000000006FFC6F72
:10092000FD000000000007FFB4FFF0000000000021
:100930009FF91FFF20000000000DFF60DFF700009F
:10094000000002FFF207FFE100000000AFFC000E14
:10095000FFB00000006FFF40005FFFC400029FFF78
:10096000A000007FFFFFDEFFFFC00000005EFFFF72
:10097000FFFF900000000006BEFFD8200000CFFF60
:10098000FFFF7CFFFFFFF79CCCCEFF700000BFF79E
:1009900000000BFF700000BFF700000BFF700000AD
:1009A000BFF700000BFF700000BFF700000BFF70E7
:1009B0000000BFF700000BFF700000BFF700000B46
:1009C000FF700000BFF700000BFF700000BFF700D2
:1009D000000BFF700000BFF700000BFF700000BFAE
:1009E000F7000049CEFFDA500000005DFFFFFFFF77
:1009F000FD200009FFFFFEDEFFFFE2004FFFB40015
:100A00000018FFFB0004E6000000007FFF1000005C
:100A1000000000000FFF400000000000000EFF403B
:100A20000000000000000FFF200000000000006F29
:100A3000FD00000000000001EFF6000000000000D3
:100A40000CFFC0000000000001CFFD1000000000FE
:100A5000001DFFD1000000000002DFFD10000000BB
:100A600000002EFFC1000000000003EFFB000000AB
:100A70000000004FFFB0000000000005FFFA00007A
:100A8000000000006FFF90000000000006FFFFCC98
:100A9000CCCCCCCCC30DFFFFFFFFFFFFFFF40DFF5D
:100AA000FFFFFFFFFFFFF40DFFFFFFFFFFFFFF0052
:100AB000DFFFFFFFFFFFFFF009CCCCCCCCCCFFFA6F
:100AC000000000000000AFFC0000000000008FFEEE
:100AD0001000000000005FFF3000000000003FFF3A
:100AE0005000000000001EFF7000000000000DFF1D
:100AF000A0000000000009FFFDA50000000000AFFD
:100B0000FFFFFE500000000699ADFFFF70000000DF
:100B1000000002BFFF20000000000000DFF900001D
:100B20000000000007FFC00000000000005FFD00A3
:100B3000000000000008FFB0B80000000002FFF74E
:100B40005FFE83000016EFFE07FFFFFFEDEFFFFFE4
:100B50003004CFFFFFFFFFFC30000027BDEFED9416
:100B6000000000000000000BFFB0000000000000CB
:100B70000008FFD10000000000000004FFF30000A7
:100B8000000000000002FFF600000000000000006E
:100B9000DFF90000000000000000AFFC00000000D2
:100BA000000000007FFE10000000000000004FFF6A
:100BB00040000000000000001EFF70000000000068
:100BC00000000CFFA00003DD9000000009FFD00032
:100BD000003FFC00000006FFF2000003FFC0000021
:100BE00003FFF50000003FFC000001EFF8000000EB
:100BF00003FFC00000AFFFFFFFFFFFFFFFFFFF0C81
:100C0000FFFFFFFFFFFFFFFFFFF09BBBBBBBBBBBBB
:100C1000DFFFBBBB00000000000005FFC0000000BC
:100C200000000000005FFC00000000000000000564
:100C3000FFC000000000000000005FFC000000009A
:100C40000000000005FFC00000000BFFFFFFFFFFDA
:100C5000FF00000CFFFFFFFFFFFF00000EFFCCCCEA
:100C6000CCCCCC00000FFF000000000000002FFDE6
:100C7000000000000000003FFB000000000000003A
:100C80005FFA000000000000007FF8000000000094
:100C900000008FFDCCBA9620000000AFFFFFFFFFE1
:100CA000FC400000CFFFFFFFFFFFF6000000000048
:100CB0000249FFFF400000000000002EFFC00000BE
:100CC0000000000004FFF100000000000000FFF33E
:100CD00000000000000000FFF20000000000000320
:100CE000FFF006D3000000000CFFC01EFFB510008F
:100CF00004CFFF402EFFFFFEDDFFFFF800019FFF46
:100D0000FFFFFFFF6000000059DEFFDB6100000015
:100D1000000027BEFFEC940000001AFFFFFFFFFF5A
:100D2000700003EFFFFECBCFFF10002EFFF8100086
:100D300000360000CFFD20000000000004FFF2009C
:100D400000000000000BFF800000000000000FFF0B
:100D5000200000000000003FFE0002688740000005
:100D60005FFC04DFFFFFFF80006FFB7FFFFFFFFFE3
:100D7000FD107FFFFFD610039FFFC06FFFFA00003A
:100D80000004FFF45FFFE0000000009FFA2FFF90D7
:100D9000000000004FFC0EFF80000000004FFD0926
:100DA000FFC0000000006FFB02FFF400000000DF46
:100DB000F6008FFF6000002CFFE0000AFFFEB99CE8
:100DC000FFFF2000007FFFFFFFFFC2000000017B4C
:100DD000EFFDA400000FFFFFFFFFFFFFFFFD0FFF70
:100DE000FFFFFFFFFFFFFD0FFFCCCCCCCCCCFFFB08
:100DF0000FFF0000000001FFF30FFF0000000008DC
:100E0000FFC00FFF000000000FFF500BBB000000F1
:100E1000007FFD00000000000000EFF60000000071
:100E2000000006FFE00000000000000DFF80000051
:100E3000000000004FFF10000000000000CFF9008C
:100E4000000000000003FFF20000000000000AFFA5
:100E5000A00000000000002FFF3000000000000094
:100E60009FFC00000000000001FFF40000000000F3
:100E70000008FFD00000000000000EFF600000002E
:100E80000000007FFE00000000000000EFF70000FF
:100E90000000000005FFF100000000000016BDFF8B
:100EA000ED94000000007FFFFFFFFFFD3000009F7A
:100EB000FFFCA9BDFFFF40004FFF91000004DFFED3
:100EC0000009FFB000000001FFF400CFF6000000B1
:100ED000000CFF600AFF7000000000DFF4006FFEEE
:100EE000100000006FFE0000CFFE831014AFFF5013
:100EF00000009FFFFFFFFFFE50000007FFFFFFFF06
:100F0000FFC300001CFFFC9767AFFFF7000BFFE477
:100F100000000008FFF503FFF20000000009FFD009
:100F20007FFB00000000002FFF19FFA00000000061
:100F300000FFF27FFC00000000003FFF14FFF40000
:100F40000000000BFFD00CFFF60000002BFFF600A6
:100F50001DFFFFB99ADFFFF800001AFFFFFFFFFF38
:100F6000E6000000027BDFFED9500000000016BD45
:100F7000FFDA60000000006EFFFFFFFFE4000000EA
:100F80007FFFFB99BFFFF600004FFF90000008FFB6
:100F9000F3000BFF9000000007FFD000FFF20000FD
:100FA00000000EFF401FFF0000000000CFFA00FF0E
:100FB000F2000000000EFFD00CFF9000000007FFC1
:100FC000FF005FFF90000008FFFFF100AFFFFB99FB
:100FD000BFFFAFFF20008FFFFFFFFF90FFF2000079
:100FE00028CEFEC8201FFF1000000000000004FFF4
:100FF000F0000000000000008FFB00000000000077
:10100000000EFF7000000000000008FFF10000006B
:1010100000000006FFF70000093000003BFFFB0066
:101020000005FFECBCEFFFFC100000BFFFFFFFFF5F
:10103000F7000000005ADFFFDA6000000009FC162C
:10104000FFF97FFFB1EFF401420000000000000053
:101050000000000000000000000000014201EFF469
:101060007FFFB6FFF90AFC1009FC16FFF97FFFB1FC
:10107000EFF401420000000000000000000000004A
:101080000000000000000000009FC15FFFA6FFFB02
:101090001DFF803FF307FD00BF800FF202DB000061
:1010A00000000000000000000000000005B7000084
:1010B0000000028EFF700000005CFFFFE4000039BA
:1010C000FFFFFA400006CFFFFD7100008FFFFE9387
:1010D0000000000DFFC50000000000DFFF930000CE
:1010E000000005CFFFFD710000000029EFFFFA406E
:1010F000000000005BFFFFE820000000028EFFFF01
:10110000600000000005BFF700000000000017604D
:10111000DFFFFFFFFFFFFF7DFFFFFFFFFFFFF77810
:10112000888888888888300000000000000000005F
:1011300000000000000000000000000000000000AF
:10114000000000000788888888888883DFFFFFFF09
:10115000FFFFFF7DFFFFFFFFFFFFF7000000000024
:1011600000000C92000000000000DFFC60000000A6
:101170000009FFFFF930000000016DFFFFD61000ED
:101180000000039EFFFFA40000000005BFFFFD401C
:101190000000000017EFF70000000005BFFF70001F
:1011A00000039EFFFFA200016DFFFFC610004AFF73
:1011B000FFF9300000CFFFFC600000000DFE820050
:1011C000000000009500000000000000000059DE53
:1011D000FFDA50000005EFFFFFFFFFD3000AFFFF1B
:1011E000ECBDFFFFF306FFF92000018FFFC005E40F
:1011F000000000007FFF00000000000002FFF2007E
:1012000000000000002FFF00000000000008FFC0E9
:10121000000000000004FFF4000000000005FFF7DC
:10122000000000000007FFF6000000000007FFF5C7
:10123000000000000002FFF60000000000008FFC2C
:1012400000000000000009EE800000000000000027
:10125000000000000000000000000000000000008E
:10126000000000000000000007FE40000000000039
:1012700001FFFD0000000000000FFFD00000000093
:1012800000006EE4000000000000000048BDFFFE0A
:10129000C951000000000000000018EFFFFFFFFF31
:1012A000FFFA300000000000007FFFEA63212358AE
:1012B000DFFF900000000000BFFD500000000000B4
:1012C0003AFFD200000000CFF8000000000000004C
:1012D00004EFE2000000BFF5000001566400017752
:1012E00041DFD000006FF600002BFFFFFF913FF9B8
:1012F00001EF90000EFA00004FFFFFFFFFE5FF90A7
:1013000004FF2006FF20003FFFC41026EFFFF90076
:101310000BF900CFA0000DFF80000001CFFF90006F
:101320005FE01FF50004FFC000000001EFF90000BE
:10133000FF34FF10009FF40000000009FF90000C34
:10134000F66FF0000CFF00000000004FF90000BF36
:1013500077FE0000DFF00000000002FF90000AF8B6
:101360007FE0000DFF00000000003FF90000AF76B5
:10137000FF0000BFF20000000006FF90000BF63FE8
:10138000F20007FF7000000000BFF90000EF40FF0F
:1013900050001FFE200000005FFF90003FF00CFA9D
:1013A00000008FFD3000006FFFFD000BFA006FF2B0
:1013B0000000CFFFB768DFF9CFFB7BFF2000EFB065
:1013C00000009FFFFFFFF805FFFFFF600005FF60C3
:1013D00000003ADFFD930004CFEB4000000AFF500D
:1013E000000000000000000000000000000CFF8072
:1013F000000000000000000000000000000BFFD60D
:101400000000000000040000000000000007FFFFD3
:10141000A6432347AFF000000000000000018FFF4B
:10142000FFFFFFFFFD200000000000000000049B04
:10143000EFFFDB83000000000000000000002FFF32
:101440008000000000000000000009FFFE00000016
:1014500000000000000001FFFFF600000000000097
:101460000000008FFBFFE000000000000000000E05
:10147000FF1BFF500000000000000006FFA04FFD12
:101480000000000000000000DFF300DFF4000000B7
:10149000000000005FFC0006FFB00000000000003C
:1014A0000CFF40000EFF30000000000004FFD000E1
:1014B000007FFA000000000000BFF6000001FFF20C
:1014C00000000000003FFE00000009FF9000000047
:1014D000000AFF800000002FFF1000000002FFF153
:1014E00000000000BFF8000000009FFFFFFFFFFFAB
:1014F000FFFFE00000001FFFFFFFFFFFFFFFFF7087
:10150000000007FFD88888888888AFFE000000EFB9
:10151000F4000000000000EFF500006FFD00000087
:1015200000000007FFD0000DFF6000000000000079
:101530001FFF4005FFE0000000000000009FFC00CE
:10154000CFF70000000000000002FFF3AFFFFFFF35
:10155000FFFFDA600000AFFFFFFFFFFFFFFE50005C
:10156000AFFD9999999ADFFFF600AFF900000000EE
:1015700003DFFF00AFF900000000002FFF40AFF9CC
:1015800000000000000DFF60AFF900000000000D3A
:10159000FF50AFF900000000002FFF10AFF900006E
:1015A000000003DFF900AFFD9999999ADFFFB000C1
:1015B000AFFFFFFFFFFFFFFD1000AFFFFFFFFFFFCB
:1015C000FFFFF700AFF90000000014AFFF80AFF994
:1015D000000000000006FFF2AFF90000000000006C
:1015E000DFF7AFF9000000000000AFF9AFF900002D
:1015F00000000000BFF9AFF9000000000001FFF695
:10160000AFF900000000003DFFF1AFFD99999999F5
:10161000ADFFFF60AFFFFFFFFFFFFFFFE500AFFF84
:10162000FFFFFFFFEDA50000000000016BDFFED90A
:1016300050000000001AFFFFFFFFFFE70000005FFF
:10164000FFFFFEDEFFFFFC10007FFFFA4000005BA3
:10165000FFFA005FFFE40000000004EB001EFFD172
:101660000000000000010008FFF200000000000080
:101670000000EFF800000000000000002FFF200035
:1016800000000000000005FFE00000000000000076
:10169000007FFC000000000000000007FFC0000009
:1016A0000000000000005FFE0000000000000000DD
:1016B00002FFF200000000000000000EFF800000AA
:1016C0000000000000008FFF20000000000000006C
:1016D00001EFFD100000000000200005FFFE4000AB
:1016E0000000004FB00007FFFFA4000005BFFFA0EF
:1016F0000005FFFFFFEDEFFFFFC1000001AFFFFF9F
:10170000FFFFFE600000000017BDFFED950000AF79
:10171000FFFFFFFFFEC840000000AFFFFFFFFFFF1D
:10172000FFFD600000AFFECCCCCCDEFFFFFC100064
:10173000AFF90000000016DFFFD100AFF900000094
:10174000000008FFFC00AFF90000000000006FFF80
:1017500070AFF900000000000009FFE0AFF90000E1
:101760000000000001FFF5AFF900000000000000DC
:10177000AFF9AFF9000000000000006FFCAFF90006
:101780000000000000005FFDAFF900000000000055
:10179000005FFDAFF9000000000000006FFCAFF932
:1017A00000000000000000AFF9AFF90000000000E9
:1017B0000001FFF5AFF900000000000009FFF0AFE5
:1017C000F90000000000006FFF70AFF9000000009A
:1017D0000008FFFC00AFF90000000016DFFFD10099
:1017E000AFFECCCCCCCEFFFFFC1000AFFFFFFFFF65
:1017F000FFFFFD600000AFFFFFFFFFFEC8400000DD
:1018000000AFFFFFFFFFFFFFFF2AFFFFFFFFFFFF0C
:10181000FFF2AFFECCCCCCCCCCCC2AFF90000000A9
:10182000000000AFF90000000000000AFF90000077
:1018300000000000AFF90000000000000AFF900067
:101840000000000000AFF90000000000000AFFDB0C
:10185000BBBBBBBBB800AFFFFFFFFFFFFFC00AFF72
:10186000FFFFFFFFFFFC00AFF90000000000000ACF
:10187000FF90000000000000AFF900000000000031
:101880000AFF90000000000000AFF9000000000017
:10189000000AFF90000000000000AFF90000000007
:1018A00000000AFFECCCCCCCCCCCC7AFFFFFFFFFD5
:1018B000FFFFFF9AFFFFFFFFFFFFFFF9AFFFFFFFF3
:1018C000FFFFFFFF2AFFFFFFFFFFFFFFF2AFFECC8E
:1018D000CCCCCCCCCC2AFF90000000000000AFF9AB
:1018E0000000000000000AFF90000000000000AFB0
:1018F000F90000000000000AFF9000000000000056
:10190000AFF90000000000000AFF90000000000096
:1019100000AFFEBBBBBBBBBB900AFFFFFFFFFFFFDF
:10192000FC00AFFFFFFFFFFFFFC00AFF90000000B9
:10193000000000AFF90000000000000AFF90000066
:1019400000000000AFF90000000000000AFF900056
:101950000000000000AFF90000000000000AFF9046
:10196000000000000000AFF90000000000000AFFC6
:1019700090000000000000000000016ADFFEDA6154
:1019800000000000019FFFFFFFFFFF910000005FCC
:10199000FFFFFEDEFFFFFE300007FFFFB400000484
:1019A0009FFFD0005FFFE40000000002CD1001EFB8
:1019B000FE100000000000010008FFF2000000001F
:1019C000000000000EFF8000000000000000002F5B
:1019D000FF2000000000000000005FFE000000008B
:1019E00000000000007FFC0000000000000022104A
:1019F0007FFC00000000000002FFF05FFE0000001E
:101A000000000002FFF02FFF20000000000002FF96
:101A1000F00EFF80000000000002FFF008FFF3005E
:101A20000000000002FFF001EFFE100000000002C5
:101A3000FFF0004FFFE40000000002FFF00006FF8F
:101A4000FFB40000038FFFF000005FFFFFFEDEFF2A
:101A5000FFFF70000001AFFFFFFFFFFFA2000000CB
:101A600000016ADFFEDA610000AFF900000000004B
:101A7000009FFAAFF90000000000009FFAAFF900E4
:101A800000000000009FFAAFF90000000000009F76
:101A9000FAAFF90000000000009FFAAFF900000063
:101AA0000000009FFAAFF90000000000009FFAAFAD
:101AB000F90000000000009FFAAFF90000000000EC
:101AC000009FFAAFFECCCCCCCCCCCCEFFAAFFFFF72
:101AD000FFFFFFFFFFFFFAAFFFFFFFFFFFFFFFFF6B
:101AE000FAAFF90000000000009FFAAFF900000013
:101AF0000000009FFAAFF90000000000009FFAAF5D
:101B0000F90000000000009FFAAFF900000000009B
:101B1000009FFAAFF90000000000009FFAAFF90043
:101B200000000000009FFAAFF90000000000009FD5
:101B3000FAAFF90000000000009FFAAFF9000000C2
:101B40000000009FFAAFF9AFF9AFF9AFF9AFF9AF05
:101B5000F9AFF9AFF9AFF9AFF9AFF9AFF9AFF9AF45
:101B6000F9AFF9AFF9AFF9AFF9AFF9AFF9AFF9AF35
:101B7000F9000FFFFFFFFFFF4000FFFFFFFFFFF433
:101B8000000CCCCCCCCFFF400000000000EFF400F4
:101B9000000000000EFF400000000000EFF4000015
:101BA0000000000EFF400000000000EFF400000005
:101BB00000000EFF400000000000EFF400000000F5
:101BC000000EFF400000000000EFF40000000000E5
:101BD0000EFF400000000000EFF400000000000EC7
:101BE000FF300000000000FFF300100000001FFFA6
:101BF000103E40000007FFE01EFF810005FFF800D7
:101C0000AFFFFDCEFFFE10008FFFFFFFFE30000094
:101C100028CEFEB60000AFF900000000000BFFD197
:101C2000AFF90000000000BFFD10AFF90000000098
:101C30000BFFD100AFF900000000BFFD1000AFF9AD
:101C40000000000BFFE20000AFF9000000BFFE2023
:101C50000000AFF900000BFFE2000000AFF9000048
:101C6000AFFE30000000AFF9000AFFF300000000F3
:101C7000AFF900AFFF3000000000AFF90AFFFF40EE
:101C800000000000AFF9AFFFFFF200000000AFFF5F
:101C9000FFF7EFFE10000000AFFFFF503FFFC00056
:101CA0000000AFFFF50005FFFA000000AFFF600085
:101CB000007FFF800000AFF900000009FFF5000081
:101CC000AFF900000000BFFF3000AFF900000000D6
:101CD0000CFFE100AFF90000000001DFFD00AFF9EB
:101CE00000000000002EFFB0AFF90000000000036C
:101CF000FFF8AFF9000000000000AFF9000000009D
:101D00000000AFF9000000000000AFF90000000083
:101D10000000AFF9000000000000AFF90000000073
:101D20000000AFF9000000000000AFF90000000063
:101D30000000AFF9000000000000AFF90000000053
:101D40000000AFF9000000000000AFF90000000043
:101D50000000AFF9000000000000AFF90000000033
:101D60000000AFF9000000000000AFF90000000023
:101D70000000AFF9000000000000AFF90000000013
:101D80000000AFF9000000000000AFFECCCCCCCCCE
:101D9000CCC8AFFFFFFFFFFFFFFBAFFFFFFFFFFF61
:101DA000FFFBAFF400000000000000000BFF2AFF63
:101DB000D00000000000000005FFF2AFFF7000003F
:101DC0000000000000EFFF2AFFFF200000000000DD
:101DD000008FFFF2AFFFFB0000000000002FFFFFAD
:101DE0002AFFFFF400000000000BFFFFF2AFFBFF33
:101DF000D00000000005FFCEFF2AFF7BFF8000001F
:101E00000000EFF2EFF2AFF71FFF200000008FF8A5
:101E10000EFF2AFF707FFB0000002FFE00EFF2AFE5
:101E2000F700DFF500000BFF500EFF2AFF7003FFE5
:101E3000E00004FFB000EFF3AFF7000AFF8000DF1F
:101E4000F2000EFF3AFF70001EFF208FF80000EF37
:101E5000F3AFF700006FFB2FFE00000EFF3AFF709C
:101E60000000CFFDFF500000EFF3AFF7000003FFCD
:101E7000FFB000000EFF3AFF70000009FFF2000003
:101E800000EFF3AFF70000001EF70000000EFF3A6E
:101E9000FF700000002500000000EFF3AFF7000026
:101EA0000000000000000EFF3AFF7000000000007C
:101EB000000000EFF3AFF60000000000009FFAAF53
:101EC000FF3000000000009FFAAFFFE100000000BB
:101ED000009FFAAFFFFC00000000009FFAAFFFFF79
:101EE000A0000000009FFAAFFEFFF7000000009F77
:101EF000FAAFF9BFFF500000009FFAAFF90DFFF2F3
:101F00000000009FFAAFF902EFFD1000009FFAAF4A
:101F1000F9004FFFB000009FFAAFF90006FFF9008B
:101F2000009FFAAFF900009FFF60009FFAAFF90031
:101F3000000CFFF3009FFAAFF9000001EFFE109FC5
:101F4000FAAFF90000003FFFD09FFAAFF9000000A0
:101F500005FFFA9FFAAFF9000000008FFFEFFAAF1C
:101F6000F9000000000AFFFFFAAFF90000000000CE
:101F7000DFFFFAAFF900000000002EFFFAAFF90012
:101F80000000000004FFFAAFF90000000000006F3D
:101F9000FA000000016ADFFFDA61000000000000C3
:101FA00019FFFFFFFFFFF910000000005FFFFFFEB9
:101FB000DEFFFFFE400000006FFFFA4000004BFF15
:101FC000FF5000004FFFE40000000005EFFF30006D
:101FD0000EFFD1000000000002EFFD0008FFF2003C
:101FE000000000000004FFF600EFF8000000000011
:101FF00000000AFFC02FFF20000000000000004F7B
:10200000FF05FFE00000000000000000FFF37FFC80
:1020100000000000000000000EFF47FFC0000000AD
:102020000000000000EFF45FFE0000000000000070
:10203000000FFF32FFF20000000000000004FFF07C
:102040000EFF8000000000000000AFFC008FFF20AA
:102050000000000000004FFF6000EFFD10000000D6
:1020600000002EFFD00004FFFE40000000005EFFD5
:10207000F3000006FFFFA4000004BFFFF50000000E
:1020800005FFFFFFEDEFFFFFE40000000001AFFFE1
:10209000FFFFFFFF9100000000000016ADFFFDA64E
:1020A00010000000AFFFFFFFFFEC9400000AFFFFED
:1020B000FFFFFFFFFD4000AFFECCCCCCDFFFFF7089
:1020C0000AFF9000000005DFFF40AFF900000000AC
:1020D00000CFFD0AFF900000000003FFF2AFF900FF
:1020E000000000000EFF5AFF900000000000CFF635
:1020F000AFF900000000000EFF5AFF900000000042
:1021000003FFF2AFF90000000000CFFD0AFF9000CE
:10211000000005DFFF40AFFECCCCCCDFFFFF700A34
:10212000FFFFFFFFFFFFFE4000AFFFFFFFFFEC944C
:1021300000000AFF9000000000000000AFF900005E
:1021400000000000000AFF9000000000000000AF47
:10215000F9000000000000000AFF900000000000ED
:102160000000AFF9000000000000000AFF9000002E
:102170000000000000000000016ADFFFDA610000DB
:1021800000000000019FFFFFFFFFFF910000000023
:10219000005FFFFFFEDEFFFFFE4000000006FFFFC6
:1021A000A4000005BFFFF50000004FFFE4000000A1
:1021B0000005FFFF300000EFFE1000000000002EC1
:1021C000FFD00007FFF300000000000004FFF5004F
:1021D0000DFF8000000000000000AFFC002FFF207A
:1021E000000000000000004FFF005FFE0000000044
:1021F000000000000FFF306FFC0000000000000036
:10220000000EFF407FFC00000000000000000EFFF9
:10221000505FFD00000000000000000FFF303FFF96
:1022200010000000000000003FFF100EFF700000D3
:1022300000000000009FFC0009FFF2000000000009
:102240000003FFF60001FFFD0000000000001EFF7C
:10225000D000006FFFD30000000003EFFF3000004C
:1022600009FFFF930000039FFFF5000000008FFFB0
:10227000FFECBCFFFFFF500000000003CFFFFFFF9B
:10228000FFFFA1000000000000049CEFFFFE6100C2
:10229000000000000000000001CFFF6000000840C7
:1022A0000000000000000BFFFA3014CFF200000025
:1022B000000000009FFFFFFFFFB0000000000000D3
:1022C0000004CFFFFFF70000000000000000000244
:1022D00067740000AFFFFFFFFFEC9400000AFFFFF0
:1022E000FFFFFFFFFD4000AFFECCCCCCDFFFFF7057
:1022F0000AFF9000000005DFFF40AFF9000000007A
:1023000000CFFD0AFF900000000003FFF2AFF900CC
:10231000000000000EFF5AFF900000000000CFF602
:10232000AFF900000000000EFF5AFF90000000000F
:1023300002FFF2AFF90000000000CFFD0AFF90009D
:10234000000005DFFF40AFFDBBBBBBCFFFFF700A46
:10235000FFFFFFFFFFFFFD4000AFFFFFFFFFFFFCA0
:1023600000000AFF90000002FFF50000AFF9000036
:102370000006FFE1000AFF900000000BFFB000AF75
:10238000F9000000001FFF600AFF90000000005FDE
:10239000FF20AFF90000000000AFFC0AFF90000032
:1023A000000001EFF7000016BDEFEDA610000008D9
:1023B000FFFFFFFFFFFA2000BFFFFDBBCEFFFF6066
:1023C00007FFF910000027DE000DFF80000000006D
:1023D00003000FFF100000000000001FFF100000AE
:1023E000000000000FFF7000000000000009FFF96E
:1023F00010000000000001CFFFFC8400000000007E
:1024000009FFFFFFFC720000000017CFFFFFFFB2C3
:10241000000000000048CFFFFF3000000000000176
:102420007FFFE000000000000002FFF60000000057
:10243000000000AFF800000000000000AFF70C70D3
:102440000000000001FFF45FFE830000005EFFD08B
:102450004EFFFFFDBBCFFFFE20019FFFFFFFFFFFF1
:10246000B200000159CEFFEC830000EFFFFFFFFF39
:10247000FFFFFFFFAEFFFFFFFFFFFFFFFFFAACCC48
:10248000CCCCFFFCCCCCCC800000003FFF00000097
:102490000000000003FFF0000000000000003FFF0C
:1024A0000000000000000003FFF00000000000003A
:1024B000003FFF0000000000000003FFF0000000EC
:1024C000000000003FFF0000000000000003FFF0DC
:1024D000000000000000003FFF00000000000000BE
:1024E00003FFF0000000000000003FFF00000000BC
:1024F00000000003FFF0000000000000003FFF00AC
:1025000000000000000003FFF000000000000000D9
:102510003FFF0000000000000003FFF0000000008B
:102520000000003FFF0000000000000003FFF0007B
:102530000000000000003FFF00000000DFF6000088
:1025400000000000FFF1DFF6000000000000FFF1D6
:10255000DFF6000000000000FFF1DFF600000000E1
:102560000000FFF1DFF6000000000000FFF1DFF6E1
:10257000000000000000FFF1DFF600000000000096
:10258000FFF1DFF6000000000000FFF1DFF60000C1
:1025900000000000FFF1DFF6000000000000FFF186
:1025A000DFF6000000000000FFF1DFF60000000091
:1025B0000000FFF1DFF6000000000000FFF1CFF7A0
:1025C000000000000001FFF0AFF900000000000370
:1025D000FFF07FFD000000000007FFB02FFF50005C
:1025E0000000000EFF700BFFE200000000AFFF10C4
:1025F00002FFFF7100005DFFF600005FFFFFEDEFDF
:10260000FFFF90000003DFFFFFFFFFE60000000078
:10261000049DEFFDA60000000CFFA00000000000DC
:1026200000009FF905FFF100000000000001FFF22B
:1026300000EFF800000000000008FFB0007FFE007F
:1026400000000000000EFF30001FFF6000000000CF
:10265000006FFC000009FFD00000000000DFF50063
:102660000002FFF50000000005FFE0000000AFFCE5
:10267000000000000CFF700000003FFF3000000071
:102680003FFF100000000CFFA0000000AFF90000A9
:10269000000005FFF1000002FFF20000000000DF73
:1026A000F8000008FFA000000000006FFF00000F0E
:1026B000FF3000000000000EFF70007FFC000000F3
:1026C00000000008FFD000EFF5000000000000014E
:1026D000FFF505FFD000000000000000AFFC0CFF7C
:1026E00070000000000000003FFF7FFF00000000BE
:1026F000000000000BFFFFF80000000000000000D9
:1027000004FFFFF1000000000000000000DFFFA058
:102710000000000000000000006FFF30000000001B
:10272000CFF7000000000008FFC000000000003FDD
:10273000FD07FFD00000000000DFFF2000000000C8
:1027400008FF801FFF20000000003FFFF70000008F
:102750000000EFF200CFF70000000009FFFFD000FB
:102760000000003FFD0007FFD000000000EFFEFF6B
:102770002000000009FF70001FFF200000004FFA3A
:102780009FF800000000EFF20000CFF80000000901
:10279000FF53FFD00000004FFC000006FFD00000F8
:1027A00000FFF00EFF30000009FF7000001FFF3037
:1027B00000005FFA008FF8000000EFF1000000BF9A
:1027C000F800000AFF4003FFD000004FFC000000AB
:1027D00006FFD00000FFE0000DFF30000AFF6000A0
:1027E00000001FFF30006FF900007FF90000FFF1CB
:1027F00000000000BFF8000BFF300002FFE0005FA8
:10280000FC0000000006FFE001FFE000000CFF40BC
:102810000AFF60000000001FFF306FF80000007F1B
:10282000F900FFF10000000000BFF90CFF300000CC
:1028300001FFE05FFB000000000005FFE2FFD000A9
:1028400000000CFF4BFF6000000000000FFFBFF80E
:10285000000000006FFBFFF1000000000000AFFF70
:10286000FF2000000001FFFFFB000000000000054A
:10287000FFFFC0000000000BFFFF50000000000041
:10288000000FFFF700000000005FFFF000000000F5
:10289000000000AFFF100000000000FFFA00000081
:1028A000000BFFE100000000004FFF3001EFFA00D5
:1028B00000000001EFF600003FFF600000000CFF89
:1028C000A0000007FFF30000008FFE10000000BF13
:1028D000FD000004FFF3000000001EFFA0001EFF2B
:1028E000700000000004FFF600BFFB0000000000C5
:1028F000008FFF27FFE10000000000000CFFDFFF5A
:102900003000000000000002FFFFF70000000000A0
:102910000000006FFFD00000000000000000BFFFBB
:10292000F40000000000000008FFFFFE100000009F
:102930000000004FFF5DFFC0000000000001EFF944
:1029400002FFF800000000000BFFC0006FFF400016
:102950000000007FFF20000AFFE100000003FFF6F7
:10296000000000DFFC0000001EFFA00000002FFFA1
:10297000800000BFFD0000000006FFF40007FFF329
:102980000000000000AFFE103FFF700000000000DC
:102990001DFFB00CFF90000000000000AFF803FF27
:1029A000F3000000000004FFD0009FFD00000000C5
:1029B000000DFF40000EFF70000000008FFA0000C5
:1029C00005FFF100000002FFF1000000BFFB000066
:1029D000000CFF600000002FFF5000006FFC0000A3
:1029E000000007FFE00001EFF30000000000DFF847
:1029F0000009FF9000000000003FFF203FFE0000A4
:102A00000000000009FFC0DFF50000000000000129
:102A1000EFFCFFB0000000000000005FFFFF20009F
:102A20000000000000000BFFF700000000000000A5
:102A30000004FFF0000000000000000003FFF000B1
:102A40000000000000000003FFF000000000000094
:102A5000000003FFF0000000000000000003FFF092
:102A6000000000000000000003FFF0000000000074
:102A700000000003FFF0000000000000000003FF62
:102A8000F0000000006FFFFFFFFFFFFFFFFFB06FD0
:102A9000FFFFFFFFFFFFFFFFB04CCCCCCCCCCCCC7A
:102AA000EFFF6000000000000003FFF900000000DD
:102AB0000000001EFFB000000000000000CFFD106D
:102AC0000000000000000AFFF2000000000000000B
:102AD0007FFF4000000000000004FFF7000000003E
:102AE0000000002FFFA000000000000001DFFC003C
:102AF0000000000000000BFFE100000000000000EB
:102B00009FFF3000000000000006FFF500000000FD
:102B10000000003FFF8000000000000002EFFB000B
:102B20000000000000000DFFD000000000000000C9
:102B3000AFFE2000000000000008FFF400000000CD
:102B40000000005FFFFCCCCCCCCCCCCCC1AFFFFFF5
:102B5000FFFFFFFFFFFFF1AFFFFFFFFFFFFFFFFFE3
:102B6000F1AFFFFFF0AFFFFFF0AFFB8880AFF700E2
:102B700000AFF70000AFF70000AFF70000AFF700BD
:102B800000AFF70000AFF70000AFF70000AFF700AD
:102B900000AFF70000AFF70000AFF70000AFF7009D
:102BA00000AFF70000AFF70000AFF70000AFF7008D
:102BB00000AFF70000AFF70000AFF70000AFF7007D
:102BC00000AFF70000AFF70000AFF70000AFFB88E1
:102BD00080AFFFFFF0AFFFFFF01FFB000000000021
:102BE00000BFF1000000000005FF700000000000C1
:102BF0000FFC000000000000AFF200000000000425
:102C0000FF7000000000000EFD0000000000009FAB
:102C1000F3000000000003FF8000000000000DFE34
:102C20000000000000008FF4000000000002FF9090
:102C300000000000000DFE0000000000007FF50015
:102C40000000000001FFA000000000000CFF0000D9
:102C5000000000006FF5000000000001FFB0000060
:102C60000000000BFF1000000000005FF6000000F5
:102C7000000000FFC000000000000AFF200000006C
:102C800000004FF7000000000000EFD0000000003F
:102C90000009FF3000000000003FF80000000000C5
:102CA00000EFE0000000000008FF3000000000001E
:102CB0003FF9000000000000DFE06FFFFFF46FFF4E
:102CC000FFF43888EFF40000CFF40000CFF40000E8
:102CD000CFF40000CFF40000CFF40000CFF40000E8
:102CE000CFF40000CFF40000CFF40000CFF40000D8
:102CF000CFF40000CFF40000CFF40000CFF40000C8
:102D0000CFF40000CFF40000CFF40000CFF40000B7
:102D1000CFF40000CFF40000CFF40000CFF40000A7
:102D2000CFF40000CFF43888EFF46FFFFFF46FFFAB
:102D3000FFF4000002FFD000000000009FFF4000F1
:102D40000000001FFEFB0000000007FE3FF2000035
:102D50000000EF70CF900000005FF106FF00000060
:102D60000CFA000EF6000003FF30008FD00000AF19
:102D7000C00001FF40001FF500000AFB0008FE0034
:102D800000004FF200EF70000000DF906FF10000D4
:102D90000006FF10FFFFFFFFFFFFFFFFFFFFFFFF2A
:102DA000FFFFFFFF08FFF3000004EFF4000001CF76
:102DB000F60000008FF700028BEFFEB6000002BFA6
:102DC000FFFFFFFFE4000BFFFEBABDFFFF2002FA8A
:102DD0003000003EFFB0001000000003FFF10000D3
:102DE00000000000DFF4000000000000BFF5000557
:102DF000ADFFFFFFFFF501CFFFFFFFFFFFF50BFF6B
:102E0000E8433333CFF52FFF20000000BFF55FFB11
:102E100000000000BFF55FFC00000003FFF52FFF7E
:102E20003000002DFFF50AFFE84349FFFFF500BF22
:102E3000FFFFFFFA9FF50005BEFFDA409FF51FFF79
:102E40000000000000000001FFF000000000000092
:102E5000001FFF0000000000000001FFF000000064
:102E6000000000001FFF0000000000000001FFF054
:102E7000000000000000001FFF0000000000000034
:102E800001FFF0049DFFDA4000001FFF0AFFFFFF73
:102E9000FFC10001FFFCFFFCBCFFFFE3001FFFFFC1
:102EA0009100006FFFD101FFFF600000002FFF9035
:102EB0001FFFB0000000006FFF01FFF400000000E2
:102EC00000EFF41FFF10000000000BFF61FFF00097
:102ED00000000000AFF71FFF10000000000BFF61B3
:102EE000FFF40000000000EFF41FFFB0000000003E
:102EF0006FFF01FFFF600000002FFF901FFFFF9199
:102F000000006FFFD101FFECFFFCBCFFFFF3001FCF
:102F1000FD1BFFFFFFFFC20001FFD004ADFFDA4041
:102F200000000000049DFFDB610000002CFFFFFF9C
:102F3000FFE500003FFFFECBDFFFF6001EFFE500D0
:102F4000002AFFE00BFFD100000009A102FFF300FF
:102F500000000000006FFC00000000000009FF906E
:102F6000000000000000AFF700000000000009FFB3
:102F7000900000000000006FFC0000000000000254
:102F8000FFF30000000000000BFFD100000009A1CA
:102F9000001EFFE500002AFFE0003FFFFECBDFFF41
:102FA000F500002CFFFFFFFFE4000000049DFFEB95
:102FB000610000000000000000002FFE0000000083
:102FC0000000002FFE000000000000002FFE0000A7
:102FD00000000000002FFE000000000000002FFE97
:102FE000000000000000002FFE00000000000000B4
:102FF0002FFE000005BEFFD9202FFE0003DFFFFFDC
:10300000FFF82FFE005FFFFECBDFFFCFFE02FFFECB
:10301000500002BFFFFE0CFFD100000009FFFE2F91
:10302000FF3000000000DFFE7FFC00000000007F9A
:10303000FE9FF900000000003FFEAFF70000000017
:10304000002FFE9FF800000000003FFE7FFC000004
:103050000000006FFE2FFF2000000000CFFE0CFFDD
:10306000C000000007FFFE02FFFC2000008FFFFEF3
:10307000005FFFFB98AFFFCFFE0003DFFFFFFFFA0B
:103080001FFE000006BEFFD9300FFE000005BEFF88
:10309000D94000000003DFFFFFFFFB1000005FFFCF
:1030A000FB9ACFFFE10002FFF9100002CFFC000BFA
:1030B000FF800000000CFF602FFD0000000002FFF9
:1030C000C07FF80000000000DFF09FFFFFFFFFFF60
:1030D000FFFFF2AFFFFFFFFFFFFFFFF39FF9333367
:1030E00033333333306FFB000000000000002FFF4C
:1030F000300000000000000BFFD100000001800044
:1031000002EFFE5000005DF800004FFFFFCBCEFF46
:10311000FC000002CFFFFFFFFFA0000000049DFFA6
:10312000EC8300000000019DFFD7000003EFFFFFCC
:10313000F30000EFFE99DD00005FFE1000100008B4
:10314000FF8000000000AFF6000000000AFF6000F2
:103150000008FFFFFFFFFF408FFFFFFFFFF4048821
:10316000DFFB888820000AFF7000000000AFF70036
:103170000000000AFF7000000000AFF70000000030
:103180000AFF7000000000AFF7000000000AFF70A7
:1031900000000000AFF7000000000AFF7000000010
:1031A00000AFF7000000000AFF7000000000AFF75A
:1031B000000000000AFF7000000000AFF7000000F0
:1031C000000005ADFFD9400CFF20004EFFFFFFFFC0
:1031D000B1CFF2007FFFFEBBCFFFDDFF204FFFC36B
:1031E000000007FFFFF20DFFB000000003FFFF2407
:1031F000FFF10000000007FFF28FFA00000000005E
:103200001FFF2AFF700000000000EFF2AFF800007F
:103210000000000FFF28FFB00000000001FFF24F88
:10322000FF10000000008FFF20DFFC000000004FB7
:10323000FFF204FFFD4000017FFFFF2006FFFFECCF
:10324000BCFFFDFFF20004EFFFFFFFFB1FFF2000AC
:10325000006BEFFD9400FFF1000000000000002F64
:10326000FF0000000000000007FFC0006400000035
:103270000001EFF7002FFB50000005EFFE0007FFF5
:10328000FFFDBBCFFFFF400005DFFFFFFFFFFD306D
:1032900000000038BDFFEDA50000001FFF0000008A
:1032A000000000001FFF000000000000001FFF00E2
:1032B0000000000000001FFF000000000000001FD1
:1032C000FF000000000000001FFF000000000000E1
:1032D000001FFF000000000000001FFF004ADFFD8C
:1032E000A300001FFF1CFFFFFFFF90001FFFDFFF79
:1032F000CCDFFFF9001FFFFF600002CFFF301FFF90
:10330000F30000000DFF901FFF8000000006FFD0BB
:103310001FFF3000000002FFF01FFF00000000014F
:10332000FFF01FFF0000000001FFF01FFF00000082
:103330000001FFF01FFF0000000001FFF01FFF0071
:1033400000000001FFF01FFF0000000001FFF01F60
:10335000FF0000000001FFF01FFF0000000001FF60
:10336000F01FFF0000000001FFF01FFF0000000041
:1033700001FFF01BFB08FFF68FFF61BEA0000000FD
:103380000000000001FFF01FFF01FFF01FFF01FF21
:10339000F01FFF01FFF01FFF01FFF01FFF01FFF013
:1033A0001FFF01FFF01FFF01FFF01FFF01FFF000F3
:1033B0000000AFC1000005FFF9000005FFF90000A3
:1033C00000AEB1000000000000000000000000009E
:1033D0000000000000EFF2000000EFF2000000EF3C
:1033E000F2000000EFF2000000EFF2000000EFF248
:1033F000000000EFF2000000EFF2000000EFF2002A
:103400000000EFF2000000EFF2000000EFF2000019
:1034100000EFF2000000EFF2000000EFF200000009
:10342000EFF2000000EFF2000000FFF2000001FFE9
:10343000F0020008FFD05FB9CFFF70BFFFFFFB00B5
:103440004ADFFC60001FFF000000000000001FFFBB
:10345000000000000000001FFF000000000000004E
:103460001FFF000000000000001FFF000000000020
:1034700000001FFF000000000000001FFF00000010
:10348000000000001FFF000000005FFF601FFF0042
:10349000000006FFF6001FFF0000007FFF60001F16
:1034A000FF000009FFF600001FFF0000AFFF6000F3
:1034B000001FFF000BFFF50000001FFF01CFFF50B2
:1034C0000000001FFF1DFFFF300000001FFFEFFF87
:1034D000FFE10000001FFFFFE6FFFB0000001FFFF1
:1034E000FD206FFF8000001FFFC10009FFF50000F5
:1034F0001FFF000000BFFF20001FFF0000001EFF95
:10350000D0001FFF00000003FFFA001FFF000000B3
:10351000005FFF701FFF0000000008FFF41FFF1F87
:10352000FF1FFF1FFF1FFF1FFF1FFF1FFF1FFF1FAB
:10353000FF1FFF1FFF1FFF1FFF1FFF1FFF1FFF1F9B
:10354000FF1FFF1FFF1FFF1FFF1FFF1FFF1FFD00AC
:103550006BEFEC71000049DEFEA400001FFD3DFF93
:10356000FFFFFF501BFFFFFFFFB0001FFEEFFCA996
:10357000CFFFF5DFFFB9AEFFFB001FFFFD300003FB
:10358000EFFFFF8000008FFF501FFFE10000004FA2
:10359000FFF90000000BFFB01FFF700000000DFFDF
:1035A000F100000004FFE01FFF200000000AFFB050
:1035B00000000001FFF01FFF0000000008FF900066
:1035C000000000FFF11FFF0000000008FF80000066
:1035D0000000FFF11FFF0000000008FF8000000056
:1035E00000FFF11FFF0000000008FF800000000046
:1035F000FFF11FFF0000000008FF8000000000FF37
:10360000F11FFF0000000008FF8000000000FFF134
:103610001FFF0000000008FF8000000000FFF11FF6
:10362000FF0000000008FF8000000000FFF11FFF06
:103630000000000008FF8000000000FFF11FFF00F5
:1036400000000008FF8000000000FFF11FFD005A8D
:10365000DFFDA300001FFD2DFFFFFFFF90001FFEF9
:10366000EFFDA9BFFFF9001FFFFE400000AFFF30D4
:103670001FFFF20000000CFF901FFF70000000050C
:10368000FFD01FFF2000000002FFF01FFF0000001E
:103690000001FFF01FFF0000000001FFF01FFF000E
:1036A00000000001FFF01FFF0000000001FFF01FFD
:1036B000FF0000000001FFF01FFF0000000001FFFD
:1036C000F01FFF0000000001FFF01FFF00000000DE
:1036D00001FFF01FFF0000000001FFF01FFF0000CE
:1036E000000001FFF0000004ADFFEB6000000002ED
:1036F000CFFFFFFFFE5000004FFFFECBDFFFF800C3
:1037000002EFFE500002BFFF500BFFD10000000986
:10371000FFF12FFF3000000000DFF76FFC0000001A
:1037200000007FFB9FF900000000003FFEAFF700A4
:10373000000000002FFF9FF900000000003FFE6F17
:10374000FC00000000007FFB2FFF3000000000DFC6
:10375000F70BFFD100000009FFF101EFFE4000026E
:10376000BFFF50004FFFFEBBDFFFF8000002CFFF9E
:10377000FFFFFE5000000004ADFFEB6000001FFDE6
:10378000004ADFFDA4000001FFD1CFFFFFFFFC10C6
:10379000001FFEDFFEA89DFFFE3001FFFFF70000C7
:1037A00004EFFD101FFFF500000001EFF901FFFA23
:1037B0000000000005FFF01FFF40000000000EFFAA
:1037C00041FFF00000000000BFF61FFF00000000F6
:1037D000000AFF71FFF10000000000CFF61FFF405C
:1037E000000000000FFF41FFFB0000000006FFF09B
:1037F0001FFFF700000002FFF901FFFFF9100006AC
:10380000FFFD101FFFBFFFCBCFFFFF3001FFF0AF69
:10381000FFFFFFFC20001FFF0039DFFDA4000001B7
:10382000FFF0000000000000001FFF00000000008B
:10383000000001FFF0000000000000001FFF00007A
:10384000000000000001FFF0000000000000001F69
:10385000FF0000000000000000000005BEFFD9309E
:103860000FFE0003DFFFFFFFF90FFE005FFFFECB3F
:10387000DFFFAFFE02FFFE500002BFFFFE0CFFD1D4
:1038800000000009FFFE2FFF3000000000DFFE7F78
:10389000FC00000000007FFE9FF900000000003FD8
:1038A000FEAFF700000000002FFE9FF900000000AF
:1038B000003FFE7FFC00000000007FFE2FFF300075
:1038C000000000DFFE0CFFD100000009FFFE02FF38
:1038D000FE400002BFFFFE005FFFFEBBDFFFBFFE3A
:1038E0000003DFFFFFFFF82FFE000006BEFFD82019
:1038F0002FFE000000000000002FFE00000000006E
:1039000000002FFE000000000000002FFE0000005D
:10391000000000002FFE000000000000002FFE004D
:103920000000000000002FFE1FFD005ADF01FFD144
:10393000BFFFF01FFDCFFFFE01FFFFF930001FFFAB
:10394000F5000001FFFA0000001FFF40000001FF2A
:10395000F10000001FFF00000001FFF00000001F49
:10396000FF00000001FFF00000001FFF0000000149
:10397000FFF00000001FFF00000001FFF00000004A
:103980001FFF0000000000004ADFFED95000001CAD
:10399000FFFFFFFFFF4000DFFFDBAADFFF1006FF96
:1039A000E300000187000AFF60000000000009FF3B
:1039B00080000000000006FFF7100000000000DF9C
:1039C000FFFDA7400000001AFFFFFFFFA20000005C
:1039D000159CFFFFFF3000000000026EFFC00000DA
:1039E00000000002FFF0002000000001FFF006F9D7
:1039F0003000000AFFD00EFFFFCAACFFFF5007FFE8
:103A0000FFFFFFFFF50000059CEFFEB7100000056B
:103A1000883000000000AFF7000000000AFF7000CF
:103A2000000000AFF70000008FFFFFFFFFF408FF6A
:103A3000FFFFFFFF40488DFFB888820000AFF7000E
:103A40000000000AFF7000000000AFF70000000057
:103A50000AFF7000000000AFF7000000000AFF70CE
:103A600000000000AFF7000000000AFF7000000037
:103A700000AFF70000000009FF90000000006FFE9B
:103A80001000200001FFFFAADD000005FFFFFFF48A
:103A9000000003AEFFC6004FFD0000000005FFB4AC
:103AA000FFD0000000005FFB4FFD0000000005FF9D
:103AB000B4FFD0000000005FFB4FFD0000000005D8
:103AC000FFB4FFD0000000005FFB4FFD00000000CE
:103AD00005FFB4FFD0000000005FFB4FFD000000B9
:103AE0000005FFB3FFD0000000006FFB3FFE0000A9
:103AF000000008FFB1FFF100000000DFFB0DFF80B8
:103B00000000006FFFB07FFF6000006FFFFB00CF81
:103B1000FFD99AEFFDFFB001BFFFFFFFFA3FFB00A7
:103B2000004AEFFD9303FFB00DFF500000000005B9
:103B3000FFB06FFC0000000000CFF400EFF30000C6
:103B400000003FFD0008FFA00000000AFF60001F0A
:103B5000FF10000001FFE00000AFF70000008FF849
:103B6000000003FFE000000EFF1000000CFF5000FB
:103B700005FFA00000005FFC0000CFF30000000084
:103B8000EFF3003FFC0000000007FF900AFF500029
:103B90000000001FFF12FFE000000000009FF78FF1
:103BA000F7000000000002FFEFFF1000000000001F
:103BB0000BFFFF900000000000004FFFF20000002C
:103BC00000000000DFFB00000000AFF40000000078
:103BD0001FFE0000000005FF64FFA000000006FFBC
:103BE000F400000000BFF00EFF00000000CFFFA0B7
:103BF0000000001FFA008FF60000002FFFFF1000EA
:103C00000007FF4002FFB0000008FFBFF600000001
:103C1000DFE0000CFF100000EFD1FFC000003FF814
:103C200000006FF700004FF70BFF200009FF200096
:103C300001FFD0000AFF104FF80000EFC000000A9B
:103C4000FF3001FFB000EFE0005FF60000004FF929
:103C5000007FF50008FF400BFF10000000EFE00DB3
:103C6000FE00002FF901FFA000000008FF43FF80C5
:103C70000000CFF07FF4000000002FFA9FF2000058
:103C800006FF5DFE0000000000CFFEFC0000001FEC
:103C9000FDFF800000000006FFFF60000000AFFF96
:103CA000F200000000001FFFF000000004FFFC0015
:103CB0000000000000BFFA000000000EFF600000DE
:103CC000000DFF900000000DFF7002FFF5000000E6
:103CD000AFFB00005FFF200006FFD1000008FFD00F
:103CE000002FFF30000000CFF900DFF600000000D9
:103CF0001EFF6AFFA00000000004FFFFFD0000009F
:103D00000000007FFFF20000000000001FFFB00075
:103D10000000000000CFFFF6000000000008FFDFF9
:103D2000FF30000000005FFE16FFD100000002FF20
:103D3000F400AFFB0000000DFF80000DFF700000DD
:103D40009FFC000002FFF40006FFE10000006FFE90
:103D5000203FFF400000000AFFC00DFF50000000A0
:103D60000005FFB06FFC0000000000CFF300EFF390
:103D7000000000003FFC0007FFB00000000AFF50F9
:103D8000001FFF20000001FFE000009FF90000007D
:103D90008FF7000002FFF100000EFF0000000BFF94
:103DA000700006FF900000003FFE0000DFF2000000
:103DB0000000CFF5004FFA0000000005FFC00BFF28
:103DC00030000000000EFF32FFC000000000007F46
:103DD000FA9FF5000000000000FFFFFD000000005A
:103DE000000008FFFF600000000000001FFFE0006F
:103DF000000000000000BFF8000000000000000EFE
:103E0000FF1000000000000007FFA000000000738A
:103E10000004FFF2000000002FFCABFFF8000000E0
:103E20000007FFFFFFFA000000000004AEFEB5002F
:103E300000000000008FFFFFFFFFFFFF38FFFFFFC4
:103E4000FFFFFFF34888888888FFFC00000000001F
:103E50007FFE10000000004FFF30000000002FFF29
:103E600060000000000DFF90000000000AFFC0008D
:103E700000000007FFE10000000004FFF300000065
:103E80000002FFF60000000000DFF9000000000063
:103E9000BFFC00000000007FFE10000000004FFF8C
:103EA000B8888888883BFFFFFFFFFFFFF7BFFFFF51
:103EB000FFFFFFFF70000006CFFA00009FFFFA002F
:103EC00003FFFD950007FFD0000009FF80000009F7
:103ED000FF70000009FF70000009FF70000009FF7B
:103EE00070000009FF70000009FF70000009FF70FA
:103EF00000000AFF6000002EFF40002FFFFC0000C2
:103F00002FFFF4000018AFFF2000000BFF6000003F
:103F100009FF70000009FF70000009FF7000000930
:103F2000FF70000009FF70000009FF70000009FF2A
:103F300070000009FF80000008FFD0000003FFFDB3
:103F4000850000AFFFFA000006CFFAAFF3AFF3AF82
:103F5000F3AFF3AFF3AFF3AFF3AFF3AFF3AFF3AF51
:103F6000F3AFF3AFF3AFF3AFF3AFF3AFF3AFF3AF41
:103F7000F3AFF3AFF3AFF3AFF3AFF3AFF3AFF3AF31
:103F8000F3AFF3AFF3AFF36FFD8000006FFFFC0002
:103F90000038CFFF70000009FFB0000004FFD00020
:103FA0000003FFE0000003FFE0000003FFE000006B
:103FB00003FFE0000003FFE0000003FFE000000358
:103FC000FFE0000002FFE0000000FFF40000009F9F
:103FD000FFF600002DFFF60000EFFC830002FFF06B
:103FE000000002FFE0000003FFE0000003FFE0002C
:103FF0000003FFE0000003FFE0000003FFE000001B
:1040000003FFE0000004FFD0000009FFC00038BF3C
:10401000FF70006FFFFD00006FFD81000000014494
:104020001000000154006FFFF9000005FB04FFFFC2
:10403000FFD2000AF80BFD207FFE627FF30FF30032
:1040400003DFFFFFA01FF0000007DFE8000018DF1C
:10405000EA30002EFEBDFF600DF70003EF34FA00DA
:104060000004FB7F5000000FE7F5000000FE4FA0AA
:1040700000004FB0DF70003EF302EFECDFF700010D
:104080008DFEA30005BB505FFFF5CFFFFCDFFFFDFA
:104090007FFFF708EE800000000000000000000035
:1040A0000000000000000000000000000000000010
:1040B000000000059DD4000000000000000000008A
:1040C00000027BFFFFFE0000000000000000000077
:1040D00048DFFFFFFFFF000000000000000016AFF8
:1040E000FFFFFFFFFFFF000000000000038CFFFF49
:1040F000FFFFFFFFFFFF000000000059EFFFFFFF81
:10410000FFFFFFFFFFFF000000006FFFFFFFFFFF4B
:10411000FFFFFFFFFFFF00000000FFFFFFFFFFFFAB
:10412000FFFFFFFFFFFF00000000FFFFFFFFFFFF9B
:10413000FFFFFFFDFFFF00000000FFFFFFFFFFFF8D
:10414000FFFFB620FFFF00000000FFFFFFFFFFFFA3
:10415000E9400000FFFF00000000FFFFFFFFFC72CE
:1041600000000000FFFF00000000FFFFFEA51000A0
:1041700000000000FFFF00000000FFFF3000000013
:1041800000000000FFFF00000000FFFF0000000033
:1041900000000000FFFF00000000FFFF0000000023
:1041A00000000000FFFF00000000FFFF0000000013
:1041B00000000000FFFF00000000FFFF0000000003
:1041C00000000000FFFF00000000FFFF00000000F3
:1041D00000000000FFFF00000000FFFF00000000E3
:1041E00000000000FFFF00000000FFFF00000000D3
:1041F000003ADFFDFFFF00000000FFFF00000000AD
:104200000AFFFFFFFFFF00000000FFFF00000000AB
:104210008FFFFFFFFFFF00000000FFFF0000000016
:10422000EFFFFFFFFFFF003ADFFDFFFF0000000090
:10423000EFFFFFFFFFFE0AFFFFFFFFFF0000000090
:104240008FFFFFFFFFF88FFFFFFFFFFF0000000061
:104250000AFFFFFFFFA0EFFFFFFFFFFF00000000CE
:10426000003ADFFDA300EFFFFFFFFFFE00000000AC
:104270000000000000008FFFFFFFFFF800000000BB
:104280000000000000000AFFFFFFFFA00000000088
:10429000000000000000003ADFFDA3000000000065
:1042A0000000000000008F0000FFFFFFFFFFFFFF86
:1042B000FFFFFF0000F8FF2002FFFFFFFFFFFFFFEF
:1042C000FFFFFF2002FFFFFFFFFFFFFFFFFFFFFFDA
:1042D000FFFFFFFFFFFFFFFFFFFFF20000000000F6
:1042E000002FFFFFFFFFFF2002FFF0000000000093
:1042F000000FFF2002FFFF0000FFF00000000000A1
:10430000000FFF0000FFFF0000FFF00000000000B2
:10431000000FFF0000FFFF2002FFF0000000000080
:10432000000FFF2002FFFFFFFFFFF0000000000072
:10433000000FFFFFFFFFFFFFFFFFF0000000000086
:10434000000FFFFFFFFFFF2002FFFA8888888888A0
:1043500088AFFF2002FFFF0000FFFFFFFFFFFFFF0E
:10436000FFFFFF0000FFFF0000FFFFFFFFFFFFFF59
:10437000FFFFFF0000FFFF2002FFFA88888888887F
:1043800088AFFF2002FFFFFFFFFFF00000000000EA
:10439000000FFFFFFFFFFFFFFFFFF0000000000026
:1043A000000FFFFFFFFFFF2002FFF00000000000F2
:1043B000000FFF2002FFFF0000FFF00000000000E0
:1043C000000FFF0000FFFF0000FFF00000000000F2
:1043D000000FFF0000FFFF2002FFF00000000000C0
:1043E000000FFF2002FFFFFFFFFFF20000000000B0
:1043F000002FFFFFFFFFFFFFFFFFFFFFFFFFFFFF9C
:10440000FFFFFFFFFFFFFF2002FFFFFFFFFFFFFF98
:10441000FFFFFF2002FF8F0000FFFFFFFFFFFFFFF6
:10442000FFFFFF0000F88FFFFFFFC004EFFFFFFF5B
:10443000FFFFFFFFFFF8FFFFFFFFF40AFFFFFFFF93
:10444000FFFFFFFFFFFFFFFFFFFFF50BFFFFFFFF7A
:10445000FFFFFFFFFFFFFFFFFFFFF50BFFFFFFFF6A
:10446000FFFFFFFFFFFFFFFFFFFFF50BFFFFFFFF5A
:10447000FFFFFFFFFFFFFFFFFFFFF50BFFFFFFFF4A
:10448000FFFFFFFFFFFFFFFFFFFFF40AFFFFFFFF3C
:10449000FFFFFFFFFFFF8FFFFFFFC004EFFFFFFFE6
:1044A000FFFFFFFFFFF80000000000000000000019
:1044B00000000000000000000000000000000000FC
:1044C0000000000000008FFFFFFFC004EFFFFFFFB0
:1044D000FFFFFFFFFFF8FFFFFFFFF40AFFFFFFFFF3
:1044E000FFFFFFFFFFFFFFFFFFFFF50BFFFFFFFFDA
:1044F000FFFFFFFFFFFFFFFFFFFFF50BFFFFFFFFCA
:10450000FFFFFFFFFFFFFFFFFFFFF50BFFFFFFFFB9
:10451000FFFFFFFFFFFFFFFFFFFFF50BFFFFFFFFA9
:10452000FFFFFFFFFFFFFFFFFFFFF40AFFFFFFFF9B
:10453000FFFFFFFFFFFF8FFFFFFFC004EFFFFFFF45
:10454000FFFFFFFFFFF80000000000000000000078
:10455000000000000000000000000000000000005B
:104560000000000000008FFFFFFFC004EFFFFFFF0F
:10457000FFFFFFFFFFF8FFFFFFFFF40AFFFFFFFF52
:10458000FFFFFFFFFFFFFFFFFFFFF50BFFFFFFFF39
:10459000FFFFFFFFFFFFFFFFFFFFF50BFFFFFFFF29
:1045A000FFFFFFFFFFFFFFFFFFFFF50BFFFFFFFF19
:1045B000FFFFFFFFFFFFFFFFFFFFF50BFFFFFFFF09
:1045C000FFFFFFFFFFFFFFFFFFFFF40AFFFFFFFFFB
:1045D000FFFFFFFFFFFF8FFFFFFFC004EFFFFFFFA5
:1045E000FFFFFFFFFFF800000000000000000000D8
:1045F0000000001BD30000000000000000000000CD
:10460000000001DFFF40000000000000000000008B
:1046100000001DFFFFF4000000000000000000008B
:104620000001DFFFFFFE00000000000000000000AE
:10463000001DFFFFFFFD0000000000000000000063
:1046400001DFFFFFFFE300000000000000000000AA
:104650001DFFFFFFFE300000000000000000000111
:10466000DFFFFFFFE300003DB10000000000001D80
:10467000FFFFFFFE300004FFFD100000000001DF1F
:10468000FFFFFFE200004FFFFFD1000000001DFF11
:10469000FFFFFE200000EFFFFFFD10000001DFFF25
:1046A000FFFFE2000000DFFFFFFFD100001DFFFF62
:1046B000FFFE200000003EFFFFFFFD1001DFFFFFB7
:1046C000FFE20000000003EFFFFFFFD11DFFFFFF2F
:1046D000FE2000000000003EFFFFFFFDDFFFFFFFA8
:1046E000E200000000000002EFFFFFFFFFFFFFFEFF
:1046F00020000000000000002EFFFFFFFFFFFFE290
:10470000000000000000000002EFFFFFFFFFFE209E
:104710000000000000000000002EFFFFFFFFE2008D
:1047200000000000000000000002EFFFFFFE20007C
:10473000000000000000000000002EFFFFE200006B
:104740000000000000000000000002EFFE2000005A
:1047500000000000000000000000002CC20000006B
:1047600000000000000001CF90000000000009FCE4
:10477000101EFFFA0000000000AFFFE1CFFFFFA016
:104780000000000AFFFFFCFFFFFFFA000000AFFF80
:10479000FFFF9FFFFFFFA0000AFFFFFFF90AFFFFD7
:1047A000FFFA00AFFFFFFFA000AFFFFFFFAAFFFF70
:1047B000FFFA00000AFFFFFFFFFFFFFFA00000005D
:1047C000AFFFFFFFFFFFFA000000000AFFFFFFFF3F
:1047D000FFA00000000000AFFFFFFFFA0000000094
:1047E0000000AFFFFFFFFA00000000000AFFFFFF1C
:1047F000FFFFA000000000AFFFFFFFFFFFFA000077
:10480000000AFFFFFFFFFFFFFFA00000AFFFFFFF59
:10481000AAFFFFFFFA000AFFFFFFFA00AFFFFFFF4A
:10482000A09FFFFFFFA0000AFFFFFFF9FFFFFFFAB5
:10483000000000AFFFFFFFCFFFFFA00000000AFF56
:10484000FFFC1EFFFA0000000000AFFFE101CF9067
:10485000000000000009FC1000000000000007FF3D
:10486000F900000000000000000000000000EFFF61
:10487000F00000000000000000000000000EFFFF3C
:1048800010000000000000000003950000EFFFF1A1
:10489000000394000000000005FFF3000EFFFF106E
:1048A00001FFF70000000006FFFFC000EFFFF1006E
:1048B0009FFFF800000004FFFFFF100EFFFF100E27
:1048C000FFFFF6000001EFFFFFB000EFFFF1009FD8
:1048D000FFFFF300009FFFFFB0000EFFFF10009FDF
:1048E000FFFFC0002FFFFFB00000EFFFF100009FAF
:1048F000FFFF5009FFFFE100000EFFFF100000DF87
:10490000FFFC00FFFFF6000000EFFFF1000004FFD6
:10491000FFF13FFFFF1000000EFFFF1000000DFF32
:10492000FF67FFFFA0000000EFFFF10000007FFF26
:10493000F99FFFF70000000EFFFF10000004FFFFCB
:10494000CAFFFF50000000EFFFF10000002FFFFD45
:10495000BFFFF40000000EFFFF00000002FFFFDABF
:10496000FFFF600000007FFF900000003FFFFD8F11
:10497000FFF800000000000000000006FFFFB5FF88
:10498000FFD0000000000000000000AFFFF82FFF84
:10499000FF2000000000000000001FFFFF40CFFFCD
:1049A000FB000000000000000008FFFFF006FFFF12
:1049B000F50000000000000003FFFFF9000EFFFFFC
:1049C000F300000000000002EFFFFF20005FFFFF88
:1049D000F5000000000003EFFFFF800000AFFFFFC5
:1049E000FA2000000019FFFFFFD0000000CFFFFFFA
:1049F000FFC76457BFFFFFFFE200000001DFFFFFBA
:104A0000FFFFFFFFFFFFFFE20000000000BFFFFF0E
:104A1000FFFFFFFFFFFFC10000000000005EFFFF7F
:104A2000FFFFFFFFFF800000000000000007DFFF26
:104A3000FFFFFFE810000000000000000000269AC1
:104A4000BA97300000000000000000000001467727
:104A50006410000000000000000000000EFFFFFFD7
:104A6000E0000000000000000000000FFFFFFFF06A
:104A7000000000000000000000000FFFFFFFF0003A
:104A80000000000000000000001FFFFFFFF1000019
:104A90000000000005910019FFFFFFFFFF91002AB1
:104AA0005000003FFF85EFFFFFFFFFFFFE58FFF3C1
:104AB0000000EFFFFFFFFFFFFFFFFFFFFFFFFD0015
:104AC00008FFFFFFFFFFFFFFFFFFFFFFFFFF801F4C
:104AD000FFFFFFFFFFFFFFFFFFFFFFFFFFF17FFF74
:104AE000FFFFFFFFFFFFFFFFFFFFFFFFF7CFFFFF0E
:104AF000FFFFFFB3003BFFFFFFFFFFFC3CFFFFFF9B
:104B0000FFF70000007FFFFFFFFFC3006FFFFFFF05
:104B1000B00000000BFFFFFFF600000EFFFFFF30AC
:104B200000000003FFFFFFD000000FFFFFFF0000A9
:104B3000000000FFFFFFF000000FFFFFFF0000007C
:104B40000000FFFFFFF000000EFFFFFF300000003D
:104B500003FFFFFFD000006FFFFFFFB00000000B5E
:104B6000FFFFFFF6003CFFFFFFFFF70000007FFFA5
:104B7000FFFFFFC3CFFFFFFFFFFFB3003BFFFFFFC0
:104B8000FFFFFC7FFFFFFFFFFFFFFFFFFFFFFFFFB8
:104B9000FFF71FFFFFFFFFFFFFFFFFFFFFFFFFFF0D
:104BA000F108FFFFFFFFFFFFFFFFFFFFFFFFFF8099
:104BB00000EFFFFFFFFFFFFFFFFFFFFFFFFE000013
:104BC0003FFF85EFFFFFFFFFFFFE58FFF3000005EB
:104BD000A2001AFFFFFFFFFFA1002A500000000003
:104BE00000001FFFFFFFF1000000000000000000B8
:104BF000000FFFFFFFF000000000000000000000B9
:104C00000FFFFFFFF0000000000000000000000E9A
:104C1000FFFFFFE000000000000000000000014670
:104C20007764100000000000000000000000000099
:104C30008EE8000005FFFF500000000000000000AB
:104C4000001CFFFFC10008FFFF8000000000000003
:104C5000000003EFFFFFFE3008FFFF8000000000B0
:104C6000000000006FFFFFFFFFF508FFFF8000005E
:104C7000000000000008FFFFFCCFFFFF88FFFF805F
:104C800000000000000001BFFFFF8008FFFFFFFFE2
:104C9000FF800000000000002DFFFFF500005FFF17
:104CA000FFFFFF80000000000004FFFFFE301AA19C
:104CB00003EFFFFFFF8000000000007FFFFFC10245
:104CC000DFFD201CFFFFFF80000000000AFFFFFA4D
:104CD000004FFFFFF400AFFFFFA000000001CFFF77
:104CE000FF7007FFFFFFFF7007FFFFFB1000003E94
:104CF000FFFFF4009FFFFFFFFFF9004FFFFFD2000F
:104D000005FFFFFD201CFFFFFFFFFFFFC102DFFFCC
:104D1000FF507FFFFFB102EFFFFFFFFFFFFFFE200D
:104D20001CFFFFF7DFFFF9005FFFFFFFFFFFFFFF43
:104D3000FFF5009FFFFD3FFF6007FFFFFFFFFFFF45
:104D4000FFFFFFFF7006FFF306E400AFFFFFFFFF6A
:104D5000FFFFFFFFFFFFFA004E60000000FFFFFFB4
:104D6000FFFFFFFFFFFFFFFFFF000000000000FF4D
:104D7000FFFFFFFFFFFFFFFFFFFFFF00000000003E
:104D800000FFFFFFFFFFFFFFFFFFFFFFFF0000002F
:104D9000000000FFFFFFFFF300003FFFFFFFFF00E9
:104DA0000000000000FFFFFFFFF000000FFFFFFF0B
:104DB000FF000000000000FFFFFFFFF000000FFFFA
:104DC000FFFFFF000000000000FFFFFFFFF00000FA
:104DD0000FFFFFFFFF000000000000FFFFFFFFF0DC
:104DE00000000FFFFFFFFF000000000000FFFFFFBB
:104DF000FFF000000FFFFFFFFF000000000000FFBA
:104E0000FFFFFFF000000FFFFFFFFF0000000000AA
:104E100000CFFFFFFFC000000CFFFFFFFC00000001
:104E20000000000000008FFFFFF8000000000000FD
:104E3000000000000000FFFFFFFF00000000000076
:104E4000000000000000FFFFFFFF00000000000066
:104E5000000000000000FFFFFFFF00000000000056
:104E6000000000000000FFFFFFFF00000000000046
:104E7000000000000000FFFFFFFF00000000000036
:104E8000000000000000FFFFFFFF00000000000026
:104E9000000000000000FFFFFFFF00000000000016
:104EA000000000000000FFFFFFFF00000000000006
:104EB000000000000000FFFFFFFF000000000000F6
:104EC000000000000000FFFFFFFF000000000000E6
:104ED000000000000000FFFFFFFF000000000000D6
:104EE000000006FFFFFFFFFFFFFFFFFFFF60000066
:104EF00000000AFFFFFFFFFFFFFFFFFFFFA0000012
:104F0000000001EFFFFFFFFFFFFFFFFFFE100000AB
:104F10000000002EFFFFFFFFFFFFFFFFE200000089
:104F200000000002EFFFFFFFFFFFFFFE2000000078
:104F3000000000002EFFFFFFFFFFFFE20000000067
:104F40000000000002EFFFFFFFFFFE200000000056
:104F500000000000002EFFFFFFFFE2000000000045
:104F6000000000000002EFFFFFFE20000000000034
:104F70000000000000002EFFFFE200000000000023
:104F80008FFFFFFFFFF302EFFE203FFFFFFFFFF861
:104F9000FFFFFFFFFFFF302DD203FFFFFFFFFFFFEB
:104FA000FFFFFFFFFFFFF300003FFFFFFFFFFFFFDB
:104FB000FFFFFFFFFFFFFF6116FFFFFFFFFFFFFF88
:104FC000FFFFFFFFFFFFFFFFFFFFFFFFFFFFFFFFF1
:104FD000FFFFFFFFFFFFFFFFFFFFFFEEFFEEFFFF03
:104FE000FFFFFFFFFFFFFFFFFFFFFE00EE00EFFFF1
:104FF000FFFFFFFFFFFFFFFFFFFFFE00EE00EFFFE1
:10500000FFFFFFFFFFFFFFFFFFFFFFEEFFEEFFFFD2
:105010008FFFFFFFFFFFFFFFFFFFFFFFFFFFFFF817
:1050200000000002BFFFFFFFFFFFFFFFFFFB2000AC
:1050300000000000001EFFFFFFFFFFFFFFFFFFFF5C
:10504000E1000000000000AFFFFFFFFFFFFFFFFFD8
:10505000FFFFFA000000000005FFFFFFFFFFFFFF5A
:10506000FFFFFFFFFF50000000001EFFFC000000DC
:105070000000000000CFFFE100000000AFFFF200E1
:10508000000000000000002FFFFA00000005FFFFF5
:1050900070000000000000000007FFFF5000001E2D
:1050A000FFFC00000000000000000000CFFFE10056
:1050B00000AFFFF2000000000000000000002FFF22
:1050C000FA0005FFFF700000000000000000000073
:1050D00007FFFF501EFFFC00000000000000000062
:1050E000000000CFFFE19FFFF20000000000000081
:1050F00000000000002FFFF9FFFFFFFFFFFFC000CF
:105100000000000CFFFFFFFFFFFFFFFFFFFFFFFF9F
:10511000F4000000004FFFFFFFFFFFFFFFFFFFFF56
:10512000FFFFFC00000000CFFFFFFFFFFFFFFFFFBE
:10513000FFFFFFFFFF40000004FFFFFFFFFFFFFF37
:10514000FFFFFFFFFFFFFFFFFFFFFFFFFFFFFFFF6F
:10515000FFFFFFFFFFFFFFFFFFFFFFFFFFFFFFFF5F
:10516000FFFFFFFFFFFFFFFFFFFFFFFFFFFFFFFF4F
:10517000FFFFFFFFFFFFFFFFFFFFFFFFFFFFFFFF3F
:10518000FFFFFFFFFFFFFFFFFFFFFFFFFFFFFFFF2F
:10519000FFFFFFFFFFFFFFFFFFFFEFFFFFFFFFFF2F
:1051A000FFFFFFFFFFFFFFFFFFFFFFFE8FFFFFFF80
:1051B000FFFFFFFFFFFFFFFFFFFFFFFFFFF808EF0D
:1051C000FFFFFFFFFFFFFFFFFFFFFFFFFFFFFE806F
:1051D0000000000000001457753000000004FFFDBF
:1051E00000000000017CFFFFFFFFA4000006FFFF9E
:1051F000000000008FFFFFFFFFFFFFD50005FFFF4E
:105200000000003DFFFFFFFFFFFFFFFFC204FFFFA5
:10521000000005FFFFFFFFFFFFFFFFFFFF54FFFF41
:1052200000005FFFFFFFA520026BFFFFFFF9FFFFFC
:105230000003FFFFFFA1000000002AFFFFFFFFFFA8
:10524000000DFFFFF40000000000005FFFFFFFFF04
:10525000008FFFFE3000000000000002EFFFFFFFA4
:1052600001FFFFF400000000004654435FFFFFFF12
:1052700007FFFF800000000000FFFFFFFFFFFFFFB0
:105280000CFFFF100000000000FFFFFFFFFFFFFF0B
:105290001FFFF9000000000000FFFFFFFFFFFFFFFE
:1052A0002FFFF3000000000000DFFFFFFFFFFFFD06
:1052B00000000000000000000000000000000000EE
:1052C00000000000000000000000000000000000DE
:1052D00000000000000000000000000000000000CE
:1052E00000000000000000000000000000000000BE
:1052F000DFFFFFFFFFFFFD0000000000003FFFF1A8
:10530000FFFFFFFFFFFFFF000000000000AFFFF006
:10531000FFFFFFFFFFFFFF000000000001FFFFB0E5
:10532000FFFFFFFFFFFFFF000000000009FFFF700D
:10533000FFFFFFF534456400000000004FFFFF0051
:10534000FFFFFFFE2000000000000003FFFFF80049
:10535000FFFFFFFFE40000000000005FFFFFD00040
:10536000FFFFFFFFFFA2000000001AFFFFFF300059
:10537000FFFF9FFFFFFFB620025AFFFFFFF500006F
:10538000FFFF45FFFFFFFFFFFFFFFFFFFF50000094
:10539000FFFF402CFFFFFFFFFFFFFFFFD3000000D8
:1053A000FFFF50005DFFFFFFFFFFFFF80000000060
:1053B000FFFF6000004AFFFFFFFFC7100000000072
:1053C000DFFF40000000036776410000000000009E
:1053D000000000000000000000000000000009F7CD
:1053E0000000000000009FFF000000000009FFFF18
:1053F00000000000009FFFFF0000000009FFFFFF0A
:10540000000000009FFFFFFF8FFFFFFFFFFFFFFF78
:10541000FFFFFFFFFFFFFFFFFFFFFFFFFFFFFFFF9C
:10542000FFFFFFFFFFFFFFFFFFFFFFFFFFFFFFFF8C
:10543000FFFFFFFFFFFFFFFFFFFFFFFFFFFFFFFF7C
:10544000FFFFFFFFFFFFFFFFFFFFFFFFFFFFFFFF6C
:10545000FFFFFFFFFFFFFFFFFFFFFFFFFFFFFFFF5C
:105460008FFFFFFFFFFFFFFF000000009FFFFFFF18
:105470000000000009FFFFFF00000000009FFFFF89
:10548000000000000009FFFF0000000000009FFF77
:1054900000000000000009F700000000000000000C
:1054A00000000000000000000000000000000000FC
:1054B000000008E7000000000000000000009FFF5F
:1054C00000000000000000000009FFFF00000000D5
:1054D00000000000009FFFFF00000000000000002F
:1054E00009FFFFFF00000000000000009FFFFFFF1A
:1054F000000000007EFFFFFFFFFFFFFF0000000035
:10550000FFFFFFFFFFFFFFFF0008E700FFFFFFFFB8
:10551000FFFFFFFF000FFF90FFFFFFFFFFFFFFFFF9
:10552000000AFFF4FFFFFFFFFFFFFFFF00009FFBEC
:10553000FFFFFFFFFFFFFFFF00001FFEFFFFFFFF5A
:10554000FFFFFFFF00001FFFFFFFFFFFFFFFFFFF49
:1055500000007FFCFFFFFFFFFFFFFFFF0008FFF5DC
:10556000FFFFFFFFFFFFFFFF000FFFB0FFFFFFFF89
:10557000FFFFFFFF000AF9009FFFFFFFFFFFFFFF94
:105580000000000000000000AFFFFFFF000000006F
:10559000000000000AFFFFFF000000000000000004
:1055A00000AFFFFF0000000000000000000AFFFF46
:1055B00000000000000000000000AFFF000000003D
:1055C0000000000000000AF80000000000000000D9
:1055D00000000000000000000000000000000000CB
:1055E00000000000000000000000000000000000BB
:1055F00000000000000000CE60000000000000007D
:10560000000000000000000004FFFA00000000009D
:105610000000000000000000000000CFFFB000000C
:1056200000000000000009F7000000000009FFFB77
:1056300000000000000000009FFF000000000000CC
:105640008FFF8000000000000009FFFF0000003E07
:10565000C20009FFF30000000000009FFFFF0000F0
:10566000009FFF4000CFFC000000000009FFFFFF8B
:105670000000004FFFF4002FFF40000000009FFFDC
:10568000FFFF00000002DFFE1009FFB08FFFFFFFE9
:10569000FFFFFFFF000000002EFF9001FFF1FFFF62
:1056A000FFFFFFFFFFFF0009F80004FFF100CFF646
:1056B000FFFFFFFFFFFFFFFF000FFFA000CFF7007E
:1056C0007FF9FFFFFFFFFFFFFFFF0009FFF5006FFE
:1056D000FB003FFCFFFFFFFFFFFFFFFF00008FFB12
:1056E000002FFE001FFEFFFFFFFFFFFFFFFF000078
:1056F0001FFE000FFF000FFFFFFFFFFFFFFFFFFF79
:1057000000001FFE000FFF000FFFFFFFFFFFFFFF66
:10571000FFFF00008FFB002FFE002FFEFFFFFFFFAB
:10572000FFFFFFFF0009FFF5006FFB003FFCFFFFDD
:10573000FFFFFFFFFFFF000FFFA000CFF7007FF983
:10574000FFFFFFFFFFFFFFFF0009F80004FFF1006C
:10575000CFF68FFFFFFFFFFFFFFF000000002EFFCF
:105760009002FFF1000000009FFFFFFF0000000219
:10577000DFFE1009FFB00000000009FFFFFF00007E
:10578000004FFFF4002FFF4000000000009FFFFFCC
:105790000000009FFF4000CFFC0000000000000957
:1057A000FFFF0000004EC20009FFF30000000000F0
:1057B00000009FFF0000000000008FFF800000003D
:1057C0000000000009F700000000000AFFFB0000D5
:1057D00000000000000000000000000000CFFFB04B
:1057E000000000000000000000000000000004FFB6
:1057F000FA000000000000000000000000000000AF
:1058000000CE60000000000000000000000000006A
:10581000000000000000000008EFFFFFFFFFFFFF97
:10582000FFFFFFFFFFFFFE808FFFFFFFFFFFFFFF78
:10583000FFFFFFFFFFFFFFF8EFFFFFFFFFFFFFFF8F
:10584000FFFFFFFFFFFFFFFEFFFFFD88DFFFFFFF02
:10585000FFFFFFFFFFFFFFFFFFFF900009FFFFFFBC
:10586000FFFFFFFFFFFFFFFFFFFD000000DFFFFF67
:10587000FFFFFFFFFFFFFFFFFFF80000008FFFFFAC
:10588000FFFFFFFFFFFFFFFFFFF80000008FFFFF9C
:10589000FFFFF99FFFFFFFFFFFFD000000DFFFFF9D
:1058A000FFFF8008FFFFFFFFFFFF900009FFFFFFE2
:1058B000FFF800008FFFFFFFFFFFFD88DFFFFFFF06
:1058C000FF80000008FFFFFFFFFFFFFFFFFFFFFF5C
:1058D000F8000000008FFFFFFFFFFFFF99FFFFFFB1
:1058E000800000000008FFFFFFFFFFF8008FFFF8B7
:1058F000000000000000FFFFFFFFFF800008FF80A6
:10590000000000000000FFFFFFFFF800000088001B
:10591000000000000000FFFFFFFF8000000000000B
:10592000000000000000FFFFFFFF0000000000007B
:10593000000000000000FFFFFFFF0000000000006B
:10594000000000000000FFFFFFFF0000000000005B
:10595000000000000000FFFFFFFFFFFFFFFFFFFF51
:10596000FFFFFFFFFFFFFFFFEFFFFFFFFFFFFFFF57
:10597000FFFFFFFFFFFFFFFE8FFFFFFFFFFFFFFFA8
:10598000FFFFFFFFFFFFFFF808EFFFFFFFFFFFFF35
:10599000FFFFFFFFFFFFFE800000000004EE40005D
:1059A000000000000000000DFFD00000000000001B
:1059B00000003FFFF300000000000000009FFFF91F
:1059C0000000000000000000EFFFFE0000000000EB
:1059D000000007FFFFFF700000000000000EFFFF47
:1059E000FFE00000000000007FFFFFFFF700000065
:1059F000000001EFFFFFFFFF100000000009FFFFA4
:105A0000FFFFFFA0000000004FFFFFFFFFFFF400BB
:105A1000000001EFFFFFFFFFFFFE1000000BFFFF84
:105A2000FFFFFFFFFFB000006FFFFFFFFFFFFFFF63
:105A3000F70001FFFFFFFFFFFFFFFFFF1009FFFF60
:105A4000FFFFFFFFFFFFFF901FFFFFFFFFFFFFFFB5
:105A5000FFFFF17FFFFFFFFFFFFFFFFFFFF7BFFF2C
:105A6000FFFFFFFFFFFFFFFFFBEFFFFFFFFFFFFF5A
:105A7000FFFFFFFEFFFF33FFFFFFFFFFFFFFFFFF03
:105A8000FF00FFFFFFFFFFFFFFFFDFFF20CFFFFF54
:105A9000FFFFFFFFFDAFFF704FFFFFFFFFFFFFFAAC
:105AA0006FFFE008FFFFFFFFFFFFF61FFFFB004C4B
:105AB000FFFFFFFFFFF107FFFFB00003FFFFFFFF46
:105AC0007000CFFFFE7203FFFFFFFC00001EFFFF10
:105AD000FFFFFFFFFFE1000001CFFFFFFFFFFFFC23
